:020000040800F2
:10000000005100205D020008056B00080551000842
:1000100095680008490E0008B1AA00080000000019
:100020000000000000000000000000009D0100082A
:10003000751A000800000000F901000855A000082A
:1000400077020008770200087702000877020008AC
:100050007702000877020008E11A0008770200081A
:1000600077020008EB1A0008F51A0008770200086A
:10007000E90F0008770200087702000877020008FD
:10008000770200087702000877020008770200086C
:100090004D0E00087702000877020008FF1A0008DA
:1000A000770200087702000877020008770200084C
:1000B00059A100087702000869A10008770200082A
:1000C000770200087702000877020008770200082C
:1000D0007702000879AA00087702000889AA0008B8
:1000E000770200087702000877020008770200080C
:1000F00077020008770200087702000877020008FC
:1001000077020008770200087702000877020008EB
:1001100077020008770200087702000877020008DB
:1001200077020008F90F0008091000088918000874
:1001300077020008770200087702000877020008BB
:100140005D0E0008770200087702000877020008B9
:100150009918000877020008770200089DAA000895
:10016000770200087702000877020008770200088B
:1001700077020008770200087702000800000000FC
:100180007702000877020008DFF80CD000F066FB69
:10019000004800473DBC0008005100202C4B196866
:1001A0000868B0E8F04F80F30988BFF36F8F4FF015
:1001B000000080F3118870470000000008480068C4
:1001C000006880F308884FF0000080F3148862B65E
:1001D00061B6BFF34F8FBFF36F8F00DF00BF00BF6B
:1001E00008ED00E0DFF80C00016841F470010160E7
:1001F000704700BF88ED00E0EFF30980BFF36F8F19
:10020000134B1A681EF0100F08BF20ED108A20E96A
:10021000F04F106009B44FF0500080F31188BFF325
:100220004F8FBFF36F8F0CF077FB4FF0000080F320
:10023000118809BC19680868B0E8F04F1EF0100F6B
:1002400008BFB0EC108A80F30988BFF36F8F704746
:1002500038000020EFF30580704700000648804713
:1002600006480047FEE7FEE7FEE7FEE7FEE7FEE79B
:10027000FEE7FEE7FEE7FEE73DA100088901000872
:100280002DE9F05F0546002092469B4688460646CB
:10029000814640241BE0284641464746224600F05E
:1002A000D6F953465A46C01A914110D31146184602
:1002B000224600F0BDF92D1A67EB01084F46224691
:1002C0000120002100F0B4F917EB00094E41201E77
:1002D000A4F10104DFDC484631462A464346BDE826
:1002E000F09F40EA01039B0703D009E008C9121FF1
:1002F00008C0042AFAD203E011F8013B00F8013BE0
:10030000521EF9D27047D2B201E000F8012B491E0B
:10031000FBD270470022F6E710B513460A460446A2
:100320001946FFF7F0FF204610BD2DE9FE4F80462D
:1003300081EA0300C00F0C46009021F0004123F039
:100340000045B8EB0200A94105D24046214690463F
:100350001C460B46024623F00040104347D0270DB1
:10036000C7F30A00C3F30A510290401A01904028D3
:100370006BDAC3F3130040F4801B0098924620B15F
:100380000023D2EB030A63EB0B0B01985946C0F133
:100390004002504600F04CF906460D46504659467C
:1003A000019A00F064F910EB08006141002487EA2B
:1003B000115284EAE7731A4340D0009A62B3019A5B
:1003C000012A4FEA075215DC001B61EB02014FF0D6
:1003D000004202EA0752CDE90042001C41F58011BB
:1003E00032462B4600F09BF903B0BDE8F08F404643
:1003F0002146F9E7001B61EB0201001C41F5801367
:1004000000185B412018A2F5001747EB030140EAF2
:10041000D570B6196D4111E06D084FEA360645EA10
:10042000C0754FEA0752001B61EB0201001C41F549
:10043000801149084FEA30000019514132462B46DD
:1004400003B0BDE8F04F00F05BB900980122400016
:100450000023D0EB020263EBE073009821464FEAE1
:10046000E074B8EB000061EB0401E9E783F00043BE
:100470005BE781F0004158E72DE9F04D81EA030484
:1004800004F0004B21F0004514464FF0000A23F021
:10049000004150EA050220D054EA01021DD0C5F304
:1004A0000A570246C5F31303C1F31300C1F30A56FA
:1004B00040F4801543F48013A7EB0608101BD646C2
:1004C00008F2FD3873EB050002D308F1010801E0E2
:1004D00092185B41B8F1000F03DA00200146BDE835
:1004E000F08D00204FF48011064684460EE0171B65
:1004F00073EB050705D3121B63EB050306434CEAB8
:10050000010C49084FEA300092185B4150EA01079C
:10051000EDD152EA030012D082EA040083EA050119
:10052000084305D0101BAB4106D20122002306E090
:1005300000224FF0004302E06FF0010253101AEB6B
:1005400006004CEB085110EB0A0041EB0B01BDE833
:10055000F04D00F0D5B80EB540F2334102910021C4
:10056000CDE900110A460B4600F0D9F803B000BDF2
:1005700000F0004230F000400AD0C10D01F560717A
:10058000C0F3160042EA0151C20840071143704708
:10059000002001467047000030B5041E71F10004D0
:1005A00004DB4FF00044404264EB0101141E73F180
:1005B000000405DB1C464FF00043524263EB04038A
:1005C0008B4208BF824230BD30B5041E71F1000479
:1005D00004DB4FF00044404264EB0101141E73F150
:1005E000000405DB1C464FF00043524263EB04035A
:1005F000994208BF904230BD01F0004330B421F071
:10060000004150EA010206D00A0DA2F56072C1F362
:100610001301002A02DC30BC00207047440F44EA7A
:10062000C104C100E01830BC00EBC25000F031B88A
:10063000202A04DB203A00FA02F1002070479140A2
:10064000C2F1200320FA03F3194390407047202A97
:1006500004DB203A21FA02F00021704721FA02F36C
:10066000D040C2F120029140084319467047202A29
:1006700006DBCB17203A41FA02F043EAE07306E0CA
:1006800041FA02F3D040C2F12002914008431946DA
:1006900070470029A8BF7047401C490008BF20F0E0
:1006A0000100704710B4B0FA80FC00FA0CF050EA78
:1006B000010404BF10BC704749B1CCF1200421FAF9
:1006C00004F411FA0CF118BF012121430843A3EBF4
:1006D0000C01CB1D4FEA00614FEA102042BF002001
:1006E00010BC704700EBC35010440029A4BF10BCDD
:1006F0007047401C490008BF20F0010010BC704743
:1007000010B5141E73F1000408DA401C41F1000119
:1007100092185B411A4301D120F0010010BD2DE970
:10072000F04D92469B4611B1B1FA81F202E0B0FA67
:1007300080F220329046FFF77BFF04460F4640EAE6
:100740000A0041EA0B0153465A46084313D01146AA
:1007500053EA010019D0C8F140025046FFF777FF75
:1007600005460E46504659464246FFF761FF08438C
:1007700005D0012004E020463946BDE8F08D002078
:10078000054346EAE0762C4337430A986305E40ABA
:10079000A0EB08000022FD0A44EA47540A3002D5C3
:1007A00000200146E9E7010510196941DDE9084526
:1007B00000196941BDE8F04DA2E72DE9F04D002395
:1007C0001A461B1A8A4103DB00200146BDE8F08D62
:1007D000C1F30A52C1F3130141F480154FF0000B2D
:1007E000D10702D100186D41521E0027044640F285
:1007F000FF11384601EB620A3E4680460246002061
:100800004FF48011FFF723FFC2197141BB1846EB6B
:100810000100B4EB030C75EB000C04D3E41A65EB98
:10082000000517460E46241908F101006D41804667
:100830003428E3DDF91946EB0600091BA84103D271
:100840004FF0FF32134601E0002213461BEB070076
:1008500046EB0A51BDE8F04DFFF752BF064C074D7D
:1008600006E0E06840F0010394E807009847103480
:10087000AC42F6D3FFF78CFC9CCF0008BCCF00083D
:1008800070B58C1810F8015B15F0070301D110F852
:10089000013B2A1106D110F8012B03E010F8016B7F
:1008A00001F8016B5B1EF9D12B0705D40023521E02
:1008B0000DD401F8013BFAE710F8013BCB1A921C6A
:1008C00003E013F8015B01F8015B521EF9D5A14268
:1008D000D8D3002070BD0000B7EE000A80ED000AFA
:1008E0009FED060A80ED010A9FED040A80ED020AE1
:1008F0009FED020A80ED030A70470000000000002F
:100900002DE9F0412DED028B0646B0EE408A0C46F3
:1009100015461F4695ED023AF0EE432A95ED013A51
:10092000B0EE432A95ED003AF0EE431A94ED023A08
:10093000B0EE431A94ED013AF0EE430A94ED003A1A
:10094000B0EE430A9FED064ADFED053A9FED043A0B
:10095000304605F045FBBDEC028BBDE8F0810000A0
:100960000000000010B501221021024802F019FC1D
:1009700010BD00000000024010B500221021024806
:1009800002F00FFC10BD00000000024070470000A4
:1009900010B501221146024802F003FC10BD000010
:1009A0000004024010B500220121024802F0F9FBC8
:1009B00010BD00000004024010B543781B021BB2BA
:1009C0000478234300EE103AB8EEC01A1C4BD3ED66
:1009D000001A21EE211A81ED001AC3781B021BB206
:1009E0008478234300EE103AB8EEC01A144BD3EDCE
:1009F000001A21EE211A81ED011A43791B021BB264
:100A00000479234300EE103AB8EEC01A0C4BD3ED34
:100A1000001A21EE211A81ED021A037A1B04C4790F
:100A200043EA04238479234300EE903AB8EE601A37
:100A3000DFED041A21EE211A82ED001A10BD00002C
:100A4000BC00002000401C42704710B50446204600
:100A50000BF021F910BD10B5044620460AF036FE11
:100A600010BD00004278120212B203781A4300EE61
:100A7000102AF8EEC00A144A92ED001A60EE810ABC
:100A8000C1ED000AC278120212B283781A4300EE56
:100A9000102AF8EEC00A0C4A92ED001A60EE810AA4
:100AA000C1ED010A4279120212B203791A4300EE33
:100AB000102AF8EEC00A044A92ED001A60EE810A8C
:100AC000C1ED020A70470000C000002010B50024EC
:100AD000FFF75CFFFFF7B8FF0AF070FB10B144F0BE
:100AE000800402E00AF0D0FA04430AF06FFD10B16E
:100AF00044F0400402E00AF0EFFC0443204610BD3D
:100B00002DE9FC4105460E46174600200090019055
:100B1000FFF732FF922000F0D1F80622694612203A
:100B200000F0ACF8FFF71EFF9DF80100000200B2D4
:100B30009DF8001040EA010400EE104AB8EEC00A29
:100B40004C48D0ED000A20EE200A86ED000A9DF800
:100B50000300000200B29DF8021040EA010400EE1A
:100B6000104AB8EEC00A4348D0ED000A20EE200A31
:100B700086ED010A9DF80500000200B29DF8041000
:100B800040EA010400EE104AB8EEC00A3948D0ED40
:100B9000000A20EE200A86ED020AFFF703FF082272
:100BA0006946002000F06AF8FFF7F2FE9DF80000A9
:100BB0000F2838D19DF80300000200B29DF8021002
:100BC00040EA010400EE104AB8EEC00A2A48D0ED0F
:100BD000000A20EE200A85ED000A9DF805000002BB
:100BE00000B29DF8041040EA010400EE104AB8EE8D
:100BF000C00A2148D0ED000A20EE200A85ED010A46
:100C00009DF80700000200B29DF8061040EA0104BA
:100C100000EE104AB8EEC00A1748D0ED000A20EEE8
:100C2000200A85ED020AFFF7A7FEA22000F046F891
:100C300002226946222000F021F8FFF793FE9DF87A
:100C40000000C0009DF8011040EA6114B4F5806F07
:100C500002DBA4F5006004B200EE104AF8EEC00A10
:100C6000B4EE001AB3EE070A00EE810A87ED000A1F
:100C7000BDE8FC81BC000020C000002070B5064625
:100C80000C46154646F0800000F018F806E05520A6
:100C900000F014F82070641C681EC5B2002DF6D157
:100CA00070BD70B504460D4644F0800000F006F8B3
:100CB000552000F003F8287070BD000001B582B027
:100CC0004FF47A70012301AA02A90090024803F0B0
:100CD0007FFB9DF804000EBD7C04002010B5024689
:100CE0001378DB00547843EA6410B0F5806F02DBC0
:100CF000A0F5006318B200EE100AF8EEC00AB4EED8
:100D0000001AB3EE070A00EE810A81ED000A10BD59
:100D100070B505460C462846FFF7D0FF2046FFF782
:100D2000CDFF70BD30B58BB004460025002001908A
:100D300002900390049007900120099008900020F1
:100D400005900E200A900C48844201D100200690A4
:100D50000A48844201D10E20069001A9204601F0E4
:100D600085F90543204601F058FE0221204601F096
:100D7000BDF828460BB030BD84010020AC01002036
:100D800010B50AF08BFC06F065FB0748FFF7CAFFB9
:100D90000648FFF7C7FF06F01BF800F009F809F056
:100DA000EDFE09F087FE10BD84010020AC0100209B
:100DB00010B5044803F0D4FC0021024803F01CFFE6
:100DC00010BD0000D4050020F7B5044615460027E5
:100DD00094F83970202F01D0212F33D1019800B120
:100DE0000DB90120FEBD00BF94F83800012801D1E3
:100DF0000220F7E7012084F8380000BF0198A062C4
:100E0000A5850020E06394F83900212803D1232030
:100E100084F8390002E0222084F8390001AE3268FB
:100E20002368191D2B46606B01F0D8FF20684069CC
:100E300040F040002168486100BF002084F838007D
:100E400000BFCFE70220CDE700BFFEE710B50248A4
:100E500001F05CFA10BD00008401002010B50248CA
:100E600001F054FA10BD0000AC0100204178027876
:100E700041EA02210D4A1180C178827841EA0221BB
:100E80000A4A51804179027941EA0221084A1180D7
:100E90001146098800EE101AB8EE400ADFED050A87
:100EA00080EE201A014981ED011A704738010020B7
:100EB000B40000200000C84202494978491C014A98
:100EC00051707047204C00202DE9FC4707460C4626
:100ED00015461E46DDE90A890820144908610020EC
:100EE0008860C86040F211100860200A8DF8000088
:100EF000E0B28DF80100280A8DF80200E8B28DF802
:100F00000300300A8DF80400F0B28DF805008DF86A
:100F100006808DF8079001236A46384600F0FBFFF3
:100F200010B90020BDE8FC870120FBE7B04B002092
:100F30002DE9FC4707460C4615461E46DDE90A89A1
:100F400008201449086100208860C8604FF4887048
:100F5000086020128DF80000E0B28DF80100280A28
:100F60008DF80200E8B28DF80300300A8DF8040015
:100F7000F0B28DF805008DF806808DF807900123FA
:100F80006A46384600F0C7FF10B90020BDE8FC876C
:100F90000120FBE7984B00201048D0ED060A1048CE
:100FA000B0F9020000EE100AB8EEC00A30EE800A76
:100FB0000A4880ED060AD0ED070A0948B0F9040096
:100FC00000EE100AB8EEC00A30EE800A034880ED49
:100FD000070A02200349087070470000304C0020C7
:100FE000C84B00204901002010B5024801F060FD07
:100FF00010BD00003407002010B5024801F058FD74
:1010000010BD00009407002010B5FE48C06C0068B9
:10101000FD49884276D9FC4854380068F949C96CC2
:101020000968FA4A914201D1202169E0F549C96C69
:101030000968F54A483A914201D1202160E0F1491E
:10104000C96C0968F14A6032914201D1202157E010
:10105000EC49C96C0968EC4A1832914201D120214F
:101060004EE0E849C96C0968E84A1832914201D15A
:10107000C91445E0E349C96C0968E34A303A914232
:1010800001D1C9143CE0DF49C96C0968DF4A7832F4
:10109000914201D1C91433E0DA49C96C0968DA4ACE
:1010A0003032914201D1C9142AE0D649C96C09688D
:1010B000D64A3032914202D14FF4001120E0D1499A
:1010C000C96C0968D04A183A914202D14FF4001114
:1010D00016E0CC49C96C0968CC4A9032914202D1E1
:1010E0004FF400110CE0C749C96C0968C64A483280
:1010F000914203D14FF4001102E003E04FF0006190
:10110000084070E1BF48C06C0068C049A8318842FF
:1011100076D9BD4858380068BA49C96C0968BB4AD5
:10112000914201D1202169E0B649C96C0968B64AEB
:10113000483A914201D1202160E0B249C96C096866
:10114000B24A6032914201D1202157E0AD49C96CC9
:101150000968AD4A1832914201D120214EE0A949D7
:10116000C96C0968A94A1832914201D1C91445E0F5
:10117000A449C96C0968A44A303A914201D1C91402
:101180003CE0A049C96C0968A04A7832914201D17B
:10119000C91433E09B49C96C09689B4A30329142BB
:1011A00001D1C9142AE09749C96C0968974A3032BD
:1011B000914202D14FF4001120E09249C96C0968B4
:1011C000914A183A914202D14FF4001116E08D492C
:1011D000C96C09688D4A9032914202D14FF40011D6
:1011E0000CE08849C96C0968874A4832914203D1AA
:1011F0004FF4001102E003E04FF000610840F2E01C
:101200008048C06C006881494831884276D97F485F
:10121000103840687B49C96C09687C4A914201D109
:10122000202169E07749C96C0968774A483A9142B8
:1012300001D1202160E07349C96C0968734A6032AA
:10124000914201D1202157E06E49C96C09686E4A6C
:101250001832914201D120214EE06A49C96C0968D7
:101260006A4A1832914201D1C91445E06549C96CF6
:101270000968654A303A914201D1C9143CE061499C
:10128000C96C0968614A7832914201D1C91433E0CE
:101290005C49C96C09685C4A3032914201D1C91479
:1012A0002AE05849C96C0968584A3032914202D143
:1012B0004FF4001120E05349C96C0968524A183AAA
:1012C000914202D14FF4001116E04E49C96C0968F1
:1012D0004E4A9032914202D14FF400110CE049493C
:1012E000C96C0968484A4832914203D14FF4001151
:1012F00002E003E04FF00061084074E0434810381A
:1013000000684049C96C0968404A914201D12021D6
:1013100068E03C49C96C09683B4A483A914201D1AE
:1013200020215FE03749C96C0968384A6032914230
:1013300001D1202156E03349C96C0968324A18327C
:10134000914201D120214DE02E49C96C09682F4AF4
:101350001832914201D1C91444E02A49C96C096884
:10136000294A303A914201D1C9143BE02549C96C60
:101370000968264A7832914201D1C91432E02149E4
:10138000C96C0968204A3032914201D1C91429E060
:101390001C49C96C09681D4A3032914202D14FF490
:1013A00000111FE01749C96C0968174A183A9142A1
:1013B00002D14FF4001115E01249C96C0968134AB3
:1013C0009032914202D14FF400110BE00D49C96CEB
:1013D00009680D4A4832914202D14FF4001101E0F0
:1013E0004FF00061084000286FD00648C06C0068CC
:1013F000054988427BD90348C06C0068034988428C
:1014000008D105E07C0400205864024010600240CE
:10141000202068E0FE48C06C0068FE49884201D187
:10142000202060E0FA48C06C0068FB49884201D186
:10143000202058E0F648C06C0068F64960318842C8
:1014400001D120204FE0F248C06C0068F2494839D1
:10145000884201D1C01446E0ED48C06C0068ED49F7
:101460001831884201D1C0143DE0E948C06C0068E1
:10147000E9491831884201D1C01434E0E448C06C15
:101480000068E4497831884201D1C0142BE0E0487B
:10149000C06C0068E0493039884202D14FF4001036
:1014A00021E0DB48C06C0068DA493031884202D163
:1014B0004FF4001017E0D648C06C0068D6493031B0
:1014C000884204D14FF400100DE0D4E10FE0D04881
:1014D000C06C0068CF499031884202D14FF40010AF
:1014E00001E04FF00060CB49091F08606AE1C8487D
:1014F000C06C0068C8494831884274D9C448C06C7F
:101500000068C5496039884201D1202066E0C048A2
:10151000C06C0068BF49884201D120205EE0BC4811
:10152000C06C0068BC49884201D1202056E0B84810
:10153000C06C0068B7496031884201D120204DE07D
:10154000B348C06C0068B4494839884201D1C0141E
:1015500044E0AF48C06C0068AE491831884201D100
:10156000C0143BE0AA48C06C0068AB4918318842FF
:1015700001D1C01432E0A648C06C0068A54978319A
:10158000884201D1C01429E0A148C06C0068A2497A
:101590003039884202D14FF400101FE09C48C06CE3
:1015A00000689C493031884202D14FF4001015E0A8
:1015B0009748C06C006898493031884202D14FF496
:1015C00000100BE09248C06C00689249903188424C
:1015D00002D14FF4001001E04FF000608D4908394E
:1015E0000860EFE0FFE78A48C06C00688A49183954
:1015F000884274D98648C06C00688749603988423F
:1016000001D1202066E08248C06C00688149884290
:1016100001D120205EE07E48C06C00687E4988428F
:1016200001D1202056E07A48C06C006879496031C9
:10163000884201D120204DE07548C06C0068764991
:101640004839884201D1C01444E07148C06C006838
:1016500070491831884201D1C0143BE06C48C06C1D
:1016600000686D491831884201D1C01432E06848E1
:10167000C06C006867497831884201D1C01429E004
:101680006348C06C006864493039884202D14FF425
:1016900000101FE05E48C06C00685E49303188422F
:1016A00002D14FF4001015E05948C06C00685A4947
:1016B0003031884202D14FF400100BE05448C06C26
:1016C000006854499031884202D14FF4001001E083
:1016D0004FF0006050497039C86073E0FFE74C4834
:1016E000C06C00684C496039884201D1202066E016
:1016F0004748C06C00684749884201D120205EE01D
:101700004348C06C00684449884201D1202056E01B
:101710003F48C06C00683F496031884201D12020B9
:101720004DE03B48C06C00683B494839884201D1D4
:10173000C01444E03648C06C00683649183188420D
:1017400001D1C0143BE03248C06C00683249183106
:10175000884201D1C01432E02D48C06C00682D4988
:101760007831884201D1C01429E02948C06C006852
:1017700029493039884202D14FF400101FE0244833
:10178000C06C006823493031884202D14FF4001008
:1017900015E01F48C06C00681F493031884202D1F3
:1017A0004FF400100BE01A48C06C006819499031E2
:1017B000884202D14FF4001001E04FF0006016495A
:1017C000703988601548007800F0020078B113483D
:1017D000007820F00200114908700846007840F0B7
:1017E00004000870012211460D4801F0DAFC0D4892
:1017F000007800F00200E0B10A48007820F0020012
:10180000084908700846007840F0040008700BE0B2
:101810007C040020106402407060024071010020CE
:10182000000402407201002001221021124801F040
:10183000B8FC1248007800F0020078B10F48007838
:1018400020F002000D4908700846007840F00400BE
:10185000087001221021084801F0A3FC09F0DAFF0A
:101860000748007800F0040028B10648006840F0FE
:1018700001000449086010BD00000240730100200F
:1018800071010020103C014010B5024801F010F930
:1018900010BD00003405002010B5024801F008F921
:1018A00010BD0000D4060020014608781038182327
:1018B000B0FBF3F20848805CC865032A05D90868C4
:1018C0006FF30900001D886503E008686FF30900E5
:1018D0008865886D704700000CCF00080146002025
:1018E0008A6A8B69CBB932B1012A0DD0022A03D0A2
:1018F000032A10D10EE000BFCB6A03F08073B3F16E
:10190000807F00D1012007E0CB6AB3F1C07F00D116
:10191000012001E000E000BF34E08B69B3F5005F17
:101920001AD132B1012A07D0022A03D0032A11D1D9
:101930000AE000BF01200EE0CB6A03F08073B3F130
:10194000807F00D1012006E0CB6AB3F1C07F00D1D7
:10195000012000E000BF15E032B1012A05D0022AC3
:1019600004D0032A0CD103E000BF00BF012008E02F
:10197000CB6A03F08073B3F1807F00D1012000E0D7
:1019800000BF00BF704730B50468246824F4802489
:1019900005682C60046863608468402C04D1046886
:1019A000A2600468E16003E00468A1600468E2608A
:1019B00030BD000008B529480068006800F010003C
:1019C00010284AD100BF0020009024480068006819
:1019D0000090224800684068009000BF00BF1F4888
:1019E000406B0068006820F001001C49496B0968E1
:1019F00008601A48406B00684068C0F12400122853
:101A000019D11749174805F0B1FD05F04FFB042027
:101A100005F000FD1449154800680AF0A5FE1248BB
:101A2000006858B14FF0805011490860BFF34F8FE4
:101A3000BFF36F8F02E0242005F0E6FB2420074966
:101A4000496B096848600548406B0068006840F0D1
:101A500001000249496B0968086008BD540600206E
:101A6000E64B0020FA4B0020EC000020080000208C
:101A700004ED00E07047000010B52DED028B00244E
:101A800000F01AF9B0EE408A00BF1EE0114800EBEA
:101A9000840090ED000A38EE400ADFED0F0AB4EE44
:101AA000E00AF1EE10FA07DD0C48007B0121A140AD
:101AB00008430A49087306E00848007B0121A14059
:101AC000884306490873601CC4B2082CDEDBBDECF9
:101AD000028B10BD344500200000C8422445002080
:101AE00010B5012001F03EFA10BD10B5082001F03C
:101AF00039FA10BD10B5102001F034FA10BD10B540
:101B0000202001F02FFA802001F02CFA10BD704740
:101B1000028942814A780B7842EA03220281CA781C
:101B20008B7842EA032212B202804A790B7942EAA8
:101B3000032212B2428002894389D21AB2F5805F31
:101B400003DD0269521E026108E002894389D21A4C
:101B500012F5805F02DA0269521C02610389026990
:101B600003EB42328389D21A426170470289428173
:101B70004A780B7842EA03220281CA788B7842EADB
:101B8000032212B202804A790B7942EA032212B28E
:101B900042808A79827102894389D21AB2F5805FC4
:101BA00003DD0269521E026108E002894389D21AEC
:101BB00012F5805F02DA0269521C02610389026930
:101BC00003EB42328389D21A426170470289428113
:101BD0004A780B7842EA03220281CA788B7842EA7B
:101BE000032212B202804A790B7942EA032212B22E
:101BF00082808A79827102894389D21AB2F5805F24
:101C000003DD0269521E026108E002894389D21A8B
:101C100012F5805F02DA0269521C026103890269CF
:101C200003EB42328389D21A4261704702894281B2
:101C30004A780B7842EA03220281CA788B7842EA1A
:101C4000032212B242804A790B7942EA032212B28D
:101C50008280028941F288339A4204DD0289A2F52A
:101C600004522B3A02E00289A2F5967212B2C281A6
:101C700002894389D21AB2F5805F03DD0269521EE0
:101C8000026108E002894389D21A12F5805F02DA04
:101C90000269521C02610389026903EB42328389A3
:101CA000D21A426170474A780B7842EA03220281D5
:101CB000028982817047000010B52DED088B114913
:101CC0004868FEF748FC41EC190B0E498968096821
:101CD000486AFEF740FC41EC1B0B9FED0B0B53ECED
:101CE000102BFEF7C9FB41EC1A0B53EC192BFEF736
:101CF0001CFB41EC180BFEF77FFC00EE100ABDEC5C
:101D0000088B10BD24450020000000000000594051
:101D100008B500F0B7F80AF087FF00904FF47A702A
:101D200009F0B9FF00BF052005F088FB2E480078B8
:101D3000012853D14FF42F702C4908802C48808CF7
:101D40002C4908602948B0F900002B490860084672
:101D5000006828490968401A28490860084690ED3B
:101D6000000AB8EEC00A264803F09CFD254880ED25
:101D7000000AD0ED000A9FED240A244805F03CF843
:101D8000234890ED7C0A234880ED000A224890ED1C
:101D9000050AB1EE400A214880ED000A1D48D0ED49
:101DA000000A1E4890ED000A1848543805F024F83F
:101DB000174890ED670ABDEEC00A10EE100A00B297
:101DC000174908800846B0F900200021154800F0A6
:101DD0002BF80521684609F06AFFA4E700221146A6
:101DE000104800F021F89EE7490100202A01002058
:101DF000484A00201C01002020010020240100206E
:101E0000184A002018010020000000001847002098
:101E100074450020FC000020704C002000010020D0
:101E20000C010020AC0100207CB506460C4615468E
:101E300040F2FF101249086000208860C860082046
:101E40000861200A8DF80000E0B28DF80100280A30
:101E50008DF80200E8B28DF8030000208DF8040030
:101E60008DF805008DF806008DF8070001236A46FD
:101E7000304600F050F808B900207CBD0120FCE796
:101E8000F04A002010B5F0EE000AB7EE000A104844
:101E900003F0E8FCB1EE0C2ADFED0E1A9FED0E1AEE
:101EA000F3EE0E0A9FED0D0A00210D4805F0D4F85F
:101EB0009FED0C2ADFED0B1AB3EE021ADFED0A0AD2
:101EC0009FED090A00210648543805F0C5F810BDF9
:101ED000184A00206F12833ACDCC4C3F00007A4460
:101EE000184700200000000000409C4510B5024645
:101EF00092F82030012B01D0022B06D110684069E6
:101F0000084314686061002010BD506A40F48020CE
:101F100050620120F8E7F0B504460D461E4694F8DD
:101F2000207020688368A86800B900E000BF012F16
:101F300001D0022F7CD103F0806030B903F0006043
:101F400018B903F08050002873D0C3F3016102294F
:101F500005D9606A40F4000060620120F0BD0120F4
:101F600088403060A86860B9B5F800C0E86840EA09
:101F70004C5C206800F5C07000EB0110C0F800C098
:101F80000FE0D5E901C040EACC00D5F80CC040EA2A
:101F90000C00D4F800C00CF5C07C0CEB011CCCF894
:101FA0000000D5F810C0206800F5C07000EB0110EB
:101FB000C0F804C0287D01280ED1206800F5C0704B
:101FC00000EB0110406840F4807C206800F5C07090
:101FD00000EB0110C0F804C0D079000692F806C0EA
:101FE00040EA0C4092F805C040EA0C2C10794CEA0B
:101FF000000C206800F5C07000EB0110C0F80CC0A8
:10200000D078000692F802C040EA0C4092F801C075
:1020100040EA0C2092F800C040EA0C00D4F800C05E
:102020000CF5C07C0CEB011CCCF80800206801E02A
:1020300016E00FE000F5C07000EB0110006840F002
:10204000010C206800F5C07000EB0110C0F800C062
:10205000002083E7606A40F40010606201207DE7A1
:10206000606A40F480206062012077E7F0B50446A2
:102070000A46216894F82050012D01D0022D7ED10E
:10208000424901F50071086840F0010008600868E5
:1020900020F47C5008600868566A40EA0620086010
:1020A000107D00F01F06012000FA06F3C86998436E
:1020B000C861A1F50071D069C8B9D1F80C02984384
:1020C000C1F80C02908880B2968940EA064601F574
:1020D0001070576940F83760108880B2168940EA5E
:1020E000064601F51070576900EBC7004660D069DD
:1020F000012819D1D1F80C021843C1F80C029088BC
:1021000080B2168840EA064601F51070576940F81B
:102110003760908980B2168940EA064601F5107052
:10212000576900EBC7004660906928B9D1F80402EE
:102130009843C1F8040204E0D1F804021843C1F83E
:102140000402106928B9D1F814029843C1F81402A6
:1021500004E0D1F814021843C1F81402106A0128EF
:1021600004D1D1F81C021843C1F81C02D1F80002B6
:1021700020F00100C1F800020020F0BDFFE7606A16
:1021800040F4802060620120F7E700000064004016
:10219000704770B5044694F82050012D01D0022DEF
:1021A0007DD151B92068C06800F0030080B9606A31
:1021B00040F400106062012070BD2068006900F0EA
:1021C000030028B9606A40F4001060620120F3E760
:1021D000206800F5D87000EB0110006800F00400E2
:1021E0009060906840B9206800F5D87000EB01104D
:1021F0000068400D106007E0206800F5D87000EB23
:1022000001100068C0085060206800F5D87000EB2D
:102210000110006800F00200D060206800F5D8705E
:1022200000EB0110406800F00F001061206800F51D
:10223000D87000EB0110406800F47F40000A906104
:10224000206800F5D87000EB01104068000C506168
:10225000206800F5D87000EB0110806818702068C5
:1022600000F5D87000EB0110806800F47F40000A90
:102270005870206800F5D87000EB0110806800F4F9
:102280007F00000C9870206800F5D87000EB0110FA
:102290008068000ED870206800F5D87000E02FE04C
:1022A00000EB0110C0681871206800F5D87000EBD1
:1022B0000110C06800F47F40000A5871206800F5E2
:1022C000D87000EB0110C06800F47F00000C98711A
:1022D000206800F5D87000EB0110C068000ED871BE
:1022E00031B92068C06840F020002668F06005E041
:1022F0002068006940F020002668306100205BE71C
:10230000606A40F480206062012055E72DE9F05FAB
:1023100004460025206846692068D0F804902068AB
:1023200087682068D0F80CA02068D0F810B020682A
:10233000D0F8188006F00100002855D007F0010001
:10234000C0B101202168886007F0020018B1204662
:1023500000F093FB0EE007F0040010B145F40065B7
:1023600008E007F0080010B145F4805502E020466F
:1023700000F082FB07F48070C8B14FF480702168D0
:10238000886007F4007018B1204600F078FB0EE07A
:1023900007F4806010B145F4005508E007F40060D0
:1023A00010B145F4804502E0204600F067FB07F4D9
:1023B0008030C8B14FF480302168886007F4003065
:1023C00018B1204600F05DFB0EE007F4802010B14C
:1023D00045F4004508E007F4002010B145F48035CD
:1023E00002E0204600F04CFB06F0080038B10AF08D
:1023F000100020B145F4007510202168C86006F077
:10240000040040B10AF0080028B108202168C86023
:10241000204600F00DFA06F0020038B12068C068CE
:1024200000F0030010B1204600F004FA06F040006E
:1024300038B10BF0100020B145F480651020216800
:10244000086106F0200040B10BF0080028B1082018
:1024500021680861204600F0DDFA06F0100038B16E
:102460002068006900F0030010B1204600F0D3FAA4
:1024700006F4003040B109F0100028B110202168A6
:102480004860204600F0C8FA06F4803040B109F0F8
:10249000080028B1082021684860204600F0F2FAC0
:1024A00006F4004088B309F0040078B306F48070A5
:1024B00020B108F0010008B145F0010506F40070F4
:1024C00020B108F0020008B145F0020506F4806072
:1024D00020B108F0040008B145F0040506F40060DE
:1024E000A0B108F0700088B108F07000402817D043
:1024F00006DC10280BD020280CD0302819D10CE095
:10250000502810D0602814D110E01DE019E045F0EB
:1025100008050FE045F010050CE045F0200509E046
:1025200045F0400506E045F0800503E045F4807580
:1025300000E000BF00BF2068806920F070002168C3
:1025400088610420216848602DB1606A2843606278
:102550002046FFF71DFEBDE8F09F70B504460CB99C
:10256000012070BD94F8200010B9204600F0B0F8AA
:102570002068006820F002002168086000F018FE62
:1025800005460DE000F014FE401B0A2808D9606AD9
:1025900040F400306062052084F820000120E0E76C
:1025A0002068406800F002000028EBD12068006835
:1025B00040F001002168086000F0FAFD05460DE0DA
:1025C00000F0F6FD401B0A2808D9606A40F400308C
:1025D0006062052084F820000120C2E7206840687E
:1025E00000F001000028EBD0207E012806D12068F1
:1025F000006840F080002168086005E020680068FD
:1026000020F0800021680860607E012806D12068E3
:10261000006840F040002168086005E0206800681C
:1026200020F0400021680860A07E012806D12068C3
:10263000006840F020002168086005E0206800681C
:1026400020F0200021680860E07E012806D1206883
:10265000006820F010002168086005E0206800682C
:1026600040F0100021680860207F012806D1206812
:10267000006840F008002168086005E020680068F4
:1026800020F0080021680860607F012806D12068DA
:10269000006840F004002168086005E020680068D8
:1026A00020F0040021680860D4E902010843216990
:1026B0000843616908436168491E08432168C8618D
:1026C00000206062012084F82000002049E700001B
:1026D00010B586B00446142101A8FDF71BFE4E4933
:1026E0002068884241D14D480068401C4B49086031
:1026F0000846006801280FD100BF0020009048481C
:10270000006840F00070464908600846006800F024
:102710000070009000BF00BF00BF00200090404844
:102720001038006840F008003D491039086008463C
:10273000006800F00800009000BF00BF0320019077
:1027400002200290002003900320049009200590AD
:1027500001A9344800F014FC00220521142001F0E6
:102760004DF9142001F03AF954E02F4920688842CD
:1027700050D100BF002000902948006840F08060E0
:10278000274908600846006800F08060009000BF9C
:1027900000BF22480068401C2049086008460068C5
:1027A00001280FD100BF002000901D48006840F0B4
:1027B00000701B4908600846006800F00070009037
:1027C00000BF00BF00BF002000901548103800680F
:1027D00040F002001249103908600846006800F015
:1027E0000200009000BF00BF602001900220029014
:1027F00000200390032004900920059001A90B48B4
:1028000000F0BEFB00220521402001F0F7F8402037
:1028100001F0E4F806B010BD0064004000000020A4
:1028200040380240000C02400068004000040240B2
:102830007047000010B592B004467348844275D1C9
:1028400010AB07AA00212046FFF7A3FC40F20122AB
:102850000798811A904229D006DCA0F223100028A4
:1028600059D00D2860D15BE0012902D004295BD149
:1028700039E0032004F0CEFD644890F8A41090F8ED
:10288000A400401CC2B2614880F8A420322904DCB4
:1028900010A98C30FFF707FA07E033215B4880F876
:1028A000A41010A98C30FFF761F93EE0022004F07B
:1028B000B1FD564890F8881090F88800401CC2B2CC
:1028C000524880F88820322904DC10A97030FFF7C4
:1028D000EAF907E033214D4880F8881010A97030DC
:1028E000FFF716F921E0002004F094FD4748017E2F
:1028F000007E401C454A1076322904DC10A910469F
:10290000FFF7D1F906E033204049087610A93F4887
:10291000FFF75CF909E010A8FEF7A8FA05E005E06A
:1029200010A8FEF7C9FA00E000BF6AE03848844208
:1029300067D10EAB6A4600212046FFF72AFC0098BB
:10294000A0F2022020B101281FD0042857D139E07D
:10295000072004F05FFD2D4890F8501090F85000CB
:10296000401CC2B2294880F85020322904DC0EA94C
:102970003830FFF798F907E03321244880F85010E9
:102980000EA93830FFF7F2F83AE0062004F042FDD5
:102990001E4890F86C1090F86C00401CC2B21B48A6
:1029A00080F86C20322904DC0EA95430FFF77BF943
:1029B00007E03321154880F86C100EA95430FFF75A
:1029C000D5F81DE0012004F025FD104890F83410E2
:1029D00090F83400401CC2B20C4880F834203229F0
:1029E00004DC0EA91C30FFF75EF907E0332107482D
:1029F00080F834100EA91C30FFF718F900E000BF72
:102A000000BF12B010BD000084010020484A002021
:102A1000AC01002070477047704770B5044694F8C9
:102A20002000012822D1022084F8200020680068BC
:102A300020F001002168086000F0BAFB05460DE0B7
:102A400000F0B6FB401B0A2808D9606A40F4003049
:102A50006062052084F82000012070BD2068406875
:102A600000F001000028EBD16062F6E7606A40F4F4
:102A7000002060620120F0E77047704770477047A0
:102A8000704770477047014691F83500022803D01F
:102A90008020486501207047052081F835000868CE
:102AA000006820F001000A6810600020F3E70000D1
:102AB000F8B50446002000908C4800684FF4165189
:102AC000B0FBF1F7A56D2E6894F85C1008208840E3
:102AD000304098B12068006800F0040070B12068B0
:102AE000006820F004002168086094F85C10082059
:102AF0008840A860606D40F00100606594F85C104B
:102B000001208840304068B12068406900F08000B2
:102B100040B194F85C1001208840A860606D40F0DE
:102B20000200606594F85C1004208840304068B171
:102B30002068006800F0020040B194F85C100420A6
:102B40008840A860606D40F00400606594F85C10F7
:102B500010208840304078B32068006800F00800FA
:102B600050B394F85C1010208840A860206800687A
:102B700000F4802080B12068006800F4002028B9AB
:102B8000206CC8B12046216C884715E0A06C98B134
:102B90002046A16C88470FE02068006800F4807030
:102BA00028B92068006820F0080021680860206CBF
:102BB00010B12046216C884794F85C102020884092
:102BC0003040002865D02068006800F01000002820
:102BD0005FD094F85C1020208840A86094F83500FD
:102BE000052828D12068006820F0160021680860B8
:102BF0002068406920F0800021684861206C08B995
:102C0000A06C28B12068006820F0080021680860E6
:102C100094F85C103F208840A86000BF002084F832
:102C2000340000BF012084F83500206D10B120462B
:102C3000216D8847F8BD2068006800F4802080B1CD
:102C40002068006800F4002028B9606C10B12046AC
:102C5000616C88471DE0E06BD8B12046E16B884786
:102C600017E02068006800F4807068B92068006888
:102C700020F010002168086000BF002084F83400B4
:102C800000BF012084F83500E06B10B12046E16BF5
:102C90008847606D38B3606D00F00100F0B1052029
:102CA00084F835002068006820F001002168086081
:102CB00000BF0098401C0090B84200D905E0206891
:102CC000006800F001000028F3D100BF00BF002021
:102CD00084F8340000BF012084F83500E06C10B1A6
:102CE0002046E16C884700BFA4E7000034000020C4
:102CF0002DE9F0410446002500F05AFA074614B9C0
:102D00000120BDE8F081606A00B100BF00BF002073
:102D100084F8340000BF022084F835002068006881
:102D200020F00100216808600AE000F041FAC01BB1
:102D3000052805D920206065032084F83500E0E7E8
:102D40002068006800F001000028EED120680568C6
:102D500021480540D4E901010843E168084321699D
:102D6000084361690843A1690843E1690843216A8E
:102D700008430543606A042803D1D4E90B010843E2
:102D80000543206805602068456925F00705606AED
:102D90000543606A04280DD1A06A0543E06A48B182
:102DA0002046FEF79BFD28B140206065012084F895
:102DB0003500A6E7206845612046FEF775FD06460A
:102DC00094F85C103F208840B060002060650120CE
:102DD00084F83500002094E73F8010F02DE9F041A1
:102DE00004460D4616461F464FF0000800BF94F8F3
:102DF0003400012802D10220BDE8F081012084F8CE
:102E0000340000BF94F83500012811D1022084F865
:102E10003500002060653B46324629462046FEF7D5
:102E2000B2FD2068006840F001002168086006E0FB
:102E300000BF002084F8340000BF4FF00208404675
:102E4000DAE7000070B50446102C12D1394800783A
:102E500040F00100374908703748007840F0010021
:102E60003549087035480078002861D008F0D2FC58
:102E70005EE0202C0CD13248007840F0010030494F
:102E800008702E480078002852D008F0C3FC4FE0AC
:102E9000082C1AD12B48007840F00100294908700D
:102EA0000846007800F001000870002840D008466D
:102EB000007820F0010008700846007840F0020019
:102EC0000870214808F074FE32E0012C12D1052070
:102ED00004F0A0FA1D491E48006809F045FC1B4893
:102EE000006828B320071B490860BFF34F8FBFF36A
:102EF0006F8F1DE0802C1BD10025002606E080216D
:102F0000154800F03DF90646681C85B216B9B5F5BE
:102F1000167FF4DBB5F5167F04DB10480078401C03
:102F20000E4908700E480078401C0D49087000BF1B
:102F300070BD0000720100207301002075010020A7
:102F40007101002074010020984C00207C010020B9
:102F50000400002004ED00E000200240204C00208E
:102F60007701002010B5044604480068204020B1D5
:102F7000024804602046FFF765FF10BD143C014085
:102F8000F8B502460B460025002400200021DCE0B5
:102F9000012606FA01F51E6806EA0504AC4273D163
:102FA0005E68012E08D05E68022E05D05E68112E84
:102FB00002D05E68122E13D190684F000326BE40E7
:102FC000B0434F00DE68BE40304390605068012639
:102FD0008E40B0431E79C6F300168E4030435060D9
:102FE000D0684F000326BE40B0434F009E68BE40ED
:102FF0003043D0605E68022E02D05E68122E13D17C
:10300000CF0802F1200656F827004E07F70E0F26CC
:10301000BE40B0434F07FF0E1E69BE403043CF088D
:1030200002F1200646F8270010684F000326BE4034
:10303000B0431E7906F003064F00BE4030431060D7
:103040005E6806F08056B6F1805F7DD100BF002635
:103050000096404E366846F480463E4F3E603E46FF
:10306000366806F48046009600BF00BF3A4E8F08CF
:1030700056F827008E07370F0F26BE40B043374E55
:10308000B24202D1002624E05EE0354EB24201D1C8
:1030900001261EE0334EB24201D1022619E0324E23
:1030A000B24201D1032614E0304EB24201D10426CF
:1030B0000FE02F4EB24201D105260AE02D4EB2425A
:1030C00001D1062605E02C4EB24201D1072600E0D0
:1030D00008268F073F0FBE4030431F4E8F0846F82B
:1030E0002700264E3068A0435E6806F48036B6F5A9
:1030F000803F00D12043214E3060361D3068A04310
:103100005E6806F40036B6F5003F00D120431B4E42
:10311000361D3060361D3068A0435E6806F48016A8
:10312000B6F5801F00D12043144E08363060361D9E
:103130003068A0435E6806F40016B6F5001F00D1A3
:1031400020430E4E0C363060491C1029FFF420AF8E
:10315000F8BD000044380240083801400000024039
:103160000004024000080240000C0240001002402F
:103170000014024000180240001C0240003C0140C4
:10318000024613690B400BB1012000E0002070479C
:1031900042690A408A4202D10A04826100E08161E8
:1031A00070470AB1816101E00B0483617047000040
:1031B00001480068704700002800002070B50446F0
:1031C0000CB9012070BD94F83D0028B9002084F8A6
:1031D0003C00204600F006FB242084F83D002068D7
:1031E000006820F00100216808602068006840F451
:1031F0000040216808602068006820F400402168D1
:10320000086000F037FD05465C496068884206D8D2
:103210005B48854201D2012007E0002005E05948C3
:10322000854201D2012000E00020012800D1C9E739
:103230005548B5FBF0F62068406820F03F00304369
:10324000216848604D496068884201D8701C07E0D9
:103250004FF4967070434FF47A71B0FBF1F0401C5C
:103260002168096A21F03F01084321680862434947
:103270006068884214D8681E61684900B0FBF1F0AC
:10328000401CC0F30B00042801D204203DE0681E5E
:1032900061684900B0FBF1F0401CC0F30B0034E062
:1032A000A06838B9681E616801EB4101B0FBF1F01C
:1032B000401C0AE0681E616801EBC10202EB0111CB
:1032C000B0FBF1F0401C40F48040C0F30B0008B9A3
:1032D00001201AE0A06848B9681E616801EB41014D
:1032E000B0FBF1F0401CC0F30B000CE0681E6168FD
:1032F00001EBC10202EB0111B0FBF1F0401CC0F385
:103300000B0040F4804040F400402168C9694CF64D
:10331000FF72914308432168C861D4E9070108435B
:103320002168096821F0C001084321680860D4E9D8
:10333000031008432168896848F2FF32914308432B
:1033400021688860D4E9050108432168C96821F033
:10335000FF0108432168C8602068006840F0010050
:103360002168086000202064202084F83D000020AF
:10337000206384F83E0000BF24E70000A08601001F
:1033800080841E0000093D0040420F002DE9FC5FD3
:1033900004460F4690469946DDE90CAB0E9EFFF7BA
:1033A00007FF054694F83D00202870D1192301221B
:1033B000B0492046009502F00FF810B10220BDE898
:1033C000FC9F00BF94F83C00012801D10220F6E7E1
:1033D000012084F83C0000BF2068006800F0010074
:1033E00028B92068006840F0010021680860206862
:1033F000006820F4006021680860222084F83D0005
:10340000402084F83E0000202064C4F824A0A4F8E2
:103410002AB0608D20859848E0624B464246394686
:103420002046CDE9006501F08FFE08B10120C6E716
:10343000208D88B900BF002001902068406901906C
:1034400020688069019000BF00BF2068006840F4D8
:1034500000702168086040E0208D012818D12068A4
:10346000006820F480602168086000BF002001909F
:1034700020684069019020688069019000BF00BF0A
:103480002068006840F400702168086025E0EFE0E3
:10349000208D022816D12068006820F48060216801
:1034A00008602068006840F400602168086000BF80
:1034B0000020019020684069019020688069019097
:1034C00000BF0AE000BF0020019020684069019021
:1034D00020688069019000BF00BFBAE0208D0328FA
:1034E0007ED8208D012815D12A463146204602F08B
:1034F00018F808B1012062E720680069616A087065
:10350000606A401C6062208D401E2085608D401ED8
:1035100060859EE0208D02282AD13346002257493B
:103520002046009501F058FF08B1012047E72068C8
:10353000006840F400702168086020680069616AD2
:103540000870606A401C6062208D401E2085608D7E
:10355000401E608520680069616A0870606A401CCE
:103560006062208D401E2085608D401E608570E069
:103570003346002241492046009501F02DFF08B155
:1035800001201CE72068006820F480602168086042
:1035900020680069616A0870606A401C6062208D62
:1035A000401E2085608D401E6085334600223349D1
:1035B0002046009501F010FF08B10120FFE62068C9
:1035C000006840F400702168086020680069616A42
:1035D0000870606A401C6062208D401E208500E0FB
:1035E00010E0608D401E608520680069616A087087
:1035F000606A401C6062208D401E2085608D401EE8
:10360000608526E02A463146204601F08AFF08B14F
:103610000120D4E620680069616A0870606A401C75
:103620006062208D401E2085608D401E6085206870
:103630004069C0F3800060B120680069616A087069
:10364000606A401C6062208D401E2085608D401E97
:103650006085208D00287FF441AF202084F83D0054
:10366000002084F83E0000BF84F83C0000BFA6E6BE
:103670000220A4E6020010000000FFFF0400010089
:103680002DE9FC5F04460F4690469946DDE90CABF8
:103690000E9EFFF78DFD054694F83D0020287DD154
:1036A000192301224D492046009501F095FE10B1E5
:1036B0000220BDE8FC9F00BF94F83C00012801D126
:1036C0000220F6E7012084F83C0000BF2068006873
:1036D00000F0010028B92068006840F0010021686E
:1036E00008602068006820F40060216808602120DC
:1036F00084F83D00402084F83E0000202064C4F897
:1037000024A0A4F82AB0608D20853548E0624B469D
:10371000424639462046CDE9006501F0C1FD08B1B9
:103720000120C6E731E02A463146204601F039FF44
:1037300050B1206C042805D12068006840F4007066
:10374000216808600120B4E7606A00782168086198
:10375000606A401C6062208D401E2085608D401E86
:10376000608520684069C0F3800070B1208D60B131
:10377000606A007821680861606A401C6062208D80
:10378000401E2085608D401E6085208D0028CAD196
:103790002A463146204601F0F1FD00E01CE050B120
:1037A000206C042805D12068006840F4007021686E
:1037B000086001207DE72068006840F400702168FF
:1037C0000860202084F83D00002084F83E0000BFFF
:1037D00084F83C0000BF6CE702206AE7020010009A
:1037E0000000FFFF10B586B00446142101A8FCF7C5
:1037F00091FD2A49206888424DD100BF00200090E9
:103800002748006840F00400254908600846006821
:1038100000F00400009000BF00BF00BF0020009037
:103820000846006840F0010008600846006800F0A3
:103830000100009000BF00BF4815019012200290C7
:1038400001200390032004900420059001A915484D
:10385000FFF796FB4FF48070019012200290012038
:103860000390032004900420059001A90E48FFF75F
:1038700087FB00BF0020009009481030006840F42A
:1038800000000749103108600846006800F4000095
:10389000009000BF00BF06B010BD0000005C0040FB
:1038A000303802400008024000000240034800682F
:1038B000034909780844014908607047280000203E
:1038C0003000002010B50D48006840F400700B492E
:1038D00008600846006840F4806008600846006898
:1038E00040F480700860032000F0C6F8002000F06B
:1038F00007F800F049F8002010BD0000003C02402D
:1039000070B588B0044600250026002221461C2000
:1039100000F074F81C2000F061F800BF0020019056
:103920001648006840F00100144908600846006825
:1039300000F00100019000BF00BF02A903A800F041
:1039400071F900F097F945000D48B5FBF0F0461EFF
:103950004FF080400B49086040F2E7310948C160F0
:10396000466000210161816000F0A4FE20B9054895
:1039700000F00BFF08B070BD0120FBE740380240AB
:1039800040420F00F407002008B500BF002000905F
:103990001148006840F480400F49086008460068FC
:1039A00000F48040009000BF00BF00BF00200090E6
:1039B000081F006840F08050091F08600846006832
:1039C00000F08050009000BF00BF00220F21901E29
:1039D00000F014F808BD00004438024001460846D3
:1039E000002809DB00F01F0301229A4043099B00D5
:1039F00003F1E023C3F8002100BF70472DE9F05F19
:103A000080460D461646002707F0D8F80746394687
:103A10002A46334601F00700C0F1070ABAF1040F45
:103A200002D94FF0040A01E0C0F1070AD14600F1C3
:103A3000040ABAF1070F02D24FF0000A01E0A0F128
:103A4000030AD4464FF0010A0AFA09FAAAF1010A58
:103A50000AEA020A0AFA0CFA4FF0010B0BFA0CFB05
:103A6000ABF1010B0BEA030B4AEA0B04214640467B
:103A700007F0ACF8BDE8F09F00BF00F00702064B6E
:103A800019684FF6FF031940044B0B4343EA022128
:103A9000014B196000BF70470CED00E00000FA0513
:103AA00070B504460D460CB9012070BD5848006839
:103AB00000F00F00A84209D255490D700846006871
:103AC00000F00F00A84201D00120EEE7207800F0BE
:103AD000020002281DD1207800F00400042805D13E
:103AE0004C48006840F4E0504A490860207800F0F3
:103AF0000800082805D14748006840F4604045495F
:103B000008604448006820F0F000A168084341497B
:103B10000860207800F00100A8B36068012807D190
:103B20003C4808380068C0F34040B8B90120BCE701
:103B30006068022802D06068032807D13548083839
:103B40000068C0F3406048B90120AEE7314808384A
:103B50000068C0F3400008B90120A6E72D480068BE
:103B600020F00300616808432A490860FFF720FB42
:103B7000064609E0FFF71CFB801B41F288318842B2
:103B800002D9032091E707E02248006800F00C000A
:103B90006168B0EB810FEDD11D48006800F00F00A7
:103BA000A84209D91A490D700846006800F00F00B4
:103BB000A84201D0012078E7207800F00400042812
:103BC00007D11448006820F4E050E1680843114927
:103BD0000860207800F00800082808D10D48006827
:103BE00020F46040216940EAC1000A49086000F001
:103BF00061F808490968C1F30311074A515CC840DC
:103C00000649086006480068FFF77AFE00204CE786
:103C1000003C02400838024014CF00083400002065
:103C20002C0000200F2202600D4A126802F00302ED
:103C300042600B4A126802F0F0028260084A126881
:103C400002F4E052C260064A126802F46042D208EE
:103C50000261044A126802F00F020A607047000015
:103C600008380240003C02400148006870470000EC
:103C70003400002000B5FFF7F7FF04490968C1F3DD
:103C80008221034A515CC84000BD00000838024050
:103C900024CF000800B5FFF7E7FF04490968C1F326
:103CA0004231034A515CC84000BD00000838024060
:103CB00024CF00082DE9F047002400250026A14666
:103CC0002548006800F00C0020B1042805D0082821
:103CD0003AD105E0DFF8849039E0DFF8849036E0EF
:103CE0001D48001F006800F03F041B48001F0068CB
:103CF00000F4800078B11A481749091F0968C1F318
:103D00008811A0FB01700146224600233846FCF7CB
:103D1000B7FA05460EE011480F49091F0968C1F3BB
:103D20008811A0FB01700146224600233846FCF7AB
:103D3000A7FA05460848001F0068C0F30140401C70
:103D40004600B5FBF6F902E0DFF8109000BF00BFB7
:103D50004846BDE8F0870000083802400024F4001F
:103D6000001BB700F8B504460CB90120F8BD207857
:103D700000F00100002874D0F948006800F00C0041
:103D800004280DD0F648006800F00C00082813D174
:103D9000F348001F006800F48000B0F5800F0BD1DD
:103DA000EF4808380068C0F34040002859D06068E8
:103DB000002856D10120D9E700BF6068B0F5803FE8
:103DC00008D1E7480838006840F48030E4490839F1
:103DD00008601EE06068B0F5A02F0DD1E0480838FB
:103DE000006840F48020DE49083908600846006811
:103DF00040F4803008600CE0D9480838006820F4AE
:103E00008030D749083908600846006820F48020CF
:103E1000086000BF606890B1FFF7CAF9054606E088
:103E2000FFF7C6F9401B642801D903209EE7CC4860
:103E300008380068C0F340400028F1D011E0FFF7D7
:103E4000B7F9054606E0FFF7B3F9401B642801D92E
:103E500003208BE7C24808380068C0F340400028C0
:103E6000F1D1207800F0020002285FD1BC48006840
:103E700000F00C0058B1BA48006800F00C000828A7
:103E80001CD1B748001F006800F48000B0B9B448E6
:103E900008380068C0F3400020B1E068012801D074
:103EA000012063E7AE480838006820F0F800216977
:103EB00040EAC100AA490839086037E0E06800B369
:103EC0000120A8490860FFF773F9054606E0FFF7EF
:103ED0006FF9401B022801D9032047E7A0480838A2
:103EE0000068C0F340000028F1D09D480838006801
:103EF00020F0F800216940EAC100994908390860BA
:103F000014E0002097490860FFF752F9054606E0E3
:103F1000FFF74EF9401B022801D9032026E79048FD
:103F200008380068C0F340000028F1D1207800F084
:103F3000080008282CD16069A8B101208A490860CE
:103F4000FFF736F9054606E0FFF732F9401B022875
:103F500001D903200AE782486C300068C0F34000B2
:103F60000028F1D014E000207F490860FFF720F915
:103F7000054606E0FFF71CF9401B022801D9032083
:103F8000F4E677486C300068C0F340000028F1D1B7
:103F9000207800F00400042870D1002770483830E1
:103FA000006800F0805090B900BF002000906C487D
:103FB0003830006840F08050694938310860084660
:103FC000006800F08050009000BF00BF01276748E4
:103FD000006800F48070B0B96448006840F48070F4
:103FE00062490860FFF7E4F8054606E0FFF7E0F8ED
:103FF000401B022801D90320B8E65C48006800F4A1
:1040000080700028F2D000BFA068012808D1544871
:104010006830006840F001005149683108601DE0D7
:10402000A06805280DD14E486830006840F00400B3
:104030004B49683108600846006840F0010008609C
:104040000CE047486830006820F0010044496831BE
:1040500008600846006820F00400086000BFA068FF
:10406000A8B1FFF7A5F8054609E0FFF7A1F8401B46
:1040700041F28831884202D9032077E626E03848A9
:1040800068300068C0F340000028EED013E0FFF76E
:104090008FF8054608E0FFF78BF8401B41F28831A6
:1040A000884201D9032061E62D4868300068C0F3DA
:1040B00040000028EFD1012F07D12948383000688F
:1040C00020F0805026493831086000BFA0690028E0
:1040D00045D02348006800F00C0008285DD0A06996
:1040E000022845D100201F490866FFF761F8054600
:1040F00006E0FFF75DF8401B022801D9032035E6F2
:10410000174808380068C0F340600028F1D1D4E9AE
:1041100007010843616A40EA81110122A06AC2EBEB
:10412000500041EA00412C20005D41EA00600C494A
:10413000091F086001200B490866FFF739F805469A
:1041400006E0FFF735F8401B022801D903200DE6F1
:10415000034808380068C0F340600028F1D03FE011
:104160000838024000004742800E4742007000407D
:1041700000201C490866FFF71BF8054606E0FFF71C
:1041800017F8401B022801D90320EFE51648006804
:10419000C0F340600028F2D122E0A069012800D1DC
:1041A000E4E511480830066806F48001E0698142C0
:1041B00014D106F03F01206A81420FD147F6C0704A
:1041C0003040616A884209D106F44031A06A8142D8
:1041D00004D106F07061E06A814201D00120C5E59A
:1041E0000020C3E5000047420038024010B50446F5
:1041F0000CB9012010BD606A00B900BF0021A162A6
:1042000094F8510028B9002084F85000204600F0AE
:1042100033F8022084F851002068006820F0400044
:1042200021680860D4E901010843E1680843216975
:10423000084361690843218B01F400710843E16977
:104240000843216A0843A16A0843216808600421E1
:10425000A06901EA1040616A08432168486020684B
:10426000C06920F400602168C861002060650120F9
:1042700084F851000020BDE710B586B00446142133
:1042800001A8FCF747F84B49206888427ED100BF5F
:10429000002000904848006840F48050464908607B
:1042A0000846006800F48050009000BF00BF00BFC7
:1042B0000020009040481438006840F002003E4959
:1042C000143908600846006800F00200009000BF42
:1042D00000BF00BF002000900846006840F00100C9
:1042E00008600846006800F00100009000BF00BFB1
:1042F00018200190022002900020039003200490D7
:104300000520059001A92D48FEF73AFE8020019076
:1043100002200290002003900320049005200590C5
:1043200001A92748FEF72CFE2648274908604FF0D0
:10433000C0604860002124488160C1604FF4806102
:104340000161002141618161C1614FF4403101622D
:1043500000214162FEF7CCFC08B1FDF7D8FB00BF9D
:104360001948E064846300BF164818301749086094
:104370004FF0C06048604021144881600021C16056
:104380004FF4806101610021416100E010E0816132
:10439000C1614FF40031016200214162FEF7A8FCC7
:1043A00008B1FDF7B4FB00BF0848A064846300BFF8
:1043B00006B010BD00300140443802400004024005
:1043C0000000024040640240D40400203405002074
:1043D0002DE9FF5F0446884691461D460E9E01204A
:1043E00002900020019000BF94F85000012803D1F2
:1043F000022004B0BDE8F09F012084F8500000BF07
:10440000FEF7D6FE074694F851B060680390AA46BE
:10441000BBF1010F0BD00398B0F5827F04D1A068E7
:1044200010B9BBF1040F02D002200190DBE0B8F11B
:10443000000F03D0B9F1000F00D015B90120019091
:10444000D1E094F85100042802D0052084F85100EE
:1044500000206065C4F83890E587A587C4F83080EF
:10446000E586A586206460642068006800F040004E
:10447000402805D02068006840F0400021680860AE
:10448000E068B0F5006F4AD1606810B1BAF1010F71
:1044900009D1206B00882168C860206B801C2063D4
:1044A000E08E401EE08633E02068806800F0020065
:1044B000022810D1E08E70B1029801280BD1206B38
:1044C00000882168C860206B801C2063E08E401E3D
:1044D000E086002002902068806800F0010068B14A
:1044E000E08F58B12068C068A16B0880A06B801C69
:1044F000A063E08F401EE08701200290FEF758FE87
:10450000C01BB04204D3701C10B1032001906AE0BC
:10451000E08E0028C8D1E08F0028C5D14AE060684D
:1045200010B1BAF1010F09D1206B0078216808732E
:10453000206B401C2063E08E401EE08634E0206843
:10454000806800F00200022810D1E08E70B102985D
:1045500001280BD1206B007821680873206B401C68
:104560002063E08E401EE086002002902068806874
:1045700000F0010068B1E08F58B12068C068A16BFD
:104580000870A06B401CA063E08F401EE0870120F4
:104590000290FEF70DFEC01BB04201D3701C00B9A3
:1045A00016B9032001901EE0E08E0028C7D1E08FED
:1045B0000028C4D13A463146204605F0BBFC20B164
:1045C00001200190202060650DE0A06850B900BF77
:1045D000002000902068C0680090206880680090EB
:1045E00000BF00BF00BF012084F8510000BF0020C1
:1045F00084F8500000BF0198FBE670477047000048
:1046000030B502460B4600BF92F83C00012801D1AC
:10461000022030BD012082F83C0000BF022082F859
:104620003D00106844681068816824F070041868C0
:10463000044310684460184D1068A8421BD01068ED
:10464000B0F1804F17D0154D1068A84213D0144D0B
:104650001068A8420FD0134D1068A8420BD0124D1D
:104660001068A84207D0114D1068A84203D0104D21
:104670001068A84205D121F08001586801431068F4
:104680008160012082F83D0000BF002082F83C00DC
:1046900000BF00BFBDE70000000001400004004073
:1046A00000080040000C00400004014000400140B0
:1046B0000018004010B504460CB9012010BD94F854
:1046C0003D0028B9002084F83C00204600F00CF89A
:1046D000022084F83D00211D206805F04DFD0120D9
:1046E00084F83D000020E9E738B504461949206800
:1046F000884218D100BF002000901748006840F0A1
:104700000400154908600846006800F004000090A5
:1047100000BF00BF002205211E20FFF76FF91E20F9
:10472000FFF75CF915E00D492068884211D100BF00
:10473000002000900848001D006840F40030064941
:10474000091D08600846006800F40030009000BFB2
:1047500000BF38BD0008004040380240004401401E
:104760000146022081F83D000868806800F00702D9
:10477000062A05D00868006840F001000B68186040
:10478000012081F83D000020704701460868C0689C
:1047900040F001000B68D8600868806800F00702EC
:1047A000062A05D00868006840F001000B68186010
:1047B000002070472DE9F04104460D4600BF94F8F3
:1047C0003C00012802D10220BDE8F081012084F8DC
:1047D0003C0000BF022084F83D002068866826F077
:1047E000770626F47F46206886602868502833D0F4
:1047F0000CDC202850D004DC00284BD0102851D1EC
:1048000049E0302849D040284CD139E060282DD0EB
:10481000702807D0B0F5805F03D0B0F5005F41D1BC
:104820000DE040E0D5E902136A68206805F021FD3B
:104830002068866846F077062068866033E0D5E910
:1048400002136A68206805F014FD2068806840F44F
:1048500080402168886026E0EA686968206805F081
:10486000F9FD5021206805F00FFD1CE0EA68696839
:10487000206805F002FE6021206805F005FD12E0C9
:10488000EA686968206805F0E5FD4021206805F0C8
:10489000FBFC08E000BF00BF00BF2968206805F0EE
:1048A000F3FC00E000BF00BF012084F83D0000BF22
:1048B000002084F83C0000BF00BF85E7704710B5BA
:1048C000044620680069C0F34000D8B12068C06881
:1048D000C0F34000B0B16FF0020021680861012010
:1048E00020772068806900F0030018B12046FFF7A8
:1048F000E5FF05E0204600F0DDF8204600F07AF9FB
:104900000020207720680069C0F38000D8B12068BB
:10491000C068C0F38000B0B16FF004002168086186
:10492000022020772068806900F4407018B120468A
:10493000FFF7C4FF05E0204600F0BCF8204600F079
:1049400059F90020207720680069C0F3C000D8B171
:104950002068C068C0F3C000B0B16FF008002168E3
:104960000861042020772068C06900F0030018B1B6
:104970002046FFF7A3FF05E0204600F09BF8204605
:1049800000F038F90020207720680069C0F300109B
:10499000D8B12068C068C0F30010B0B16FF010004B
:1049A00021680861082020772068C06900F4407001
:1049B00018B12046FFF782FF05E0204600F07AF8A4
:1049C000204600F017F9002020772068006900F0E9
:1049D000010058B12068C06800F0010030B16FF0EC
:1049E000010021680861204600F032F92068006962
:1049F000C0F3C01058B12068C068C0F3C01030B117
:104A00006FF08000216808612046FFF7F6FD2068FE
:104A10000069C0F3801058B12068C068C0F38010EE
:104A200030B16FF0400021680861204600F024F9A1
:104A300020680069C0F3401058B12068C068C0F316
:104A4000401030B16FF02000216808612046FFF768
:104A5000D5FD10BD10B586B00446142101A8FBF7A2
:104A600059FC1149206888421CD100BF00200090E9
:104A70000E48006840F020000C49086008460068B5
:104A800000F02000009000BF00BF402001900220F5
:104A900002900020039004900320059001A904488F
:104AA000FEF76EFA06B010BD0044014030380240F7
:104AB00000140240704770B504460D46164600BF0C
:104AC00094F83C00012801D1022070BD012084F837
:104AD0003C0000BF022084F83D0036B1042E1BD0FC
:104AE000082E31D00C2E5ED145E02946206805F015
:104AF000D5FB2068806940F0080021688861206843
:104B0000806920F004002168886120688069296933
:104B100008432168886147E02946206805F0F6FBD4
:104B20002068806940F4006021688861206880699D
:104B300020F480602168886120688069296940EAE2
:104B40000120216888612FE02946206805F01CFCBF
:104B50002068C06940F008002168C8612068C06909
:104B600020F004002168C8612068C06929690843F1
:104B70002168C86118E02946206805F041FC2068DA
:104B8000C06940F400602168C8612068C06920F4F1
:104B900080602168C8612068C069296940EA0120F5
:104BA0002168C86100E000BF00BF012084F83D001B
:104BB00000BF002084F83C0000BF00BF85E710B5AF
:104BC00004460CB9012010BD94F83D0028B900201E
:104BD00084F83C00204600F00CF8022084F83D00E8
:104BE000211D206805F0C8FA012084F83D0000204E
:104BF000E9E770477047000070B504460E46012291
:104C00003146206805F024FB0F492068884203D014
:104C10000E492068884201D1012000E0002028B11F
:104C20002068406C40F40040216848642068806837
:104C300000F00705062D05D02068006840F001004F
:104C400021680860002070BD0000014000040140A0
:104C500010B5044606492068884202D1FEF726FEB8
:104C600004E00448844201D102F0E0FB10BD0000E2
:104C70000000014094050020704770472DE9F0477F
:104C80000446206805682068C668206847694FF0B8
:104C90000008C14605F00F08B8F1000F0AD105F071
:104CA000200038B106F0200020B1204605F068FC55
:104CB000BDE8F087B8F1000F72D007F0010018B915
:104CC00006F4907000286BD005F0010030B106F4B6
:104CD000807018B1E06B40F00100E06305F0040063
:104CE00030B107F0010018B1E06B40F00200E06362
:104CF00005F0020030B107F0010018B1E06B40F0A0
:104D00000400E06305F0080048B106F0200010B987
:104D100007F0010018B1E06B40F00800E063E06BC1
:104D200070B305F0200028B106F0200010B1204635
:104D300005F026FC20684069C0F38019E06B00F0A4
:104D4000080010B9B9F1000F23D0204605F0E8FBA8
:104D50002068406900F04000402816D12068406972
:104D600020F0400021684861606B50B11748616BCA
:104D70000865606BFDF787FE10B1606B016D8847B9
:104D80000CE02046FFF779FF08E02046FFF775FFAB
:104D900004E02046FFF771FF0020E06388E7FFE7AB
:104DA00005F0800030B106F0800018B1204605F013
:104DB0002FFE7DE705F0400030B106F0400018B14D
:104DC000204605F0BDFB73E700BF71E70DA50008A5
:104DD00010B504460CB9012010BDA06900B100E077
:104DE00000BF94F8390028B9002084F83800204624
:104DF00000F028F8242084F839002068C06820F4E6
:104E000000502168C860204605F00EFC206800694B
:104E100020F49040216808612068406920F02A0051
:104E2000216848612068C06840F400502168C8606B
:104E30000020E063202084F8390084F83A00002044
:104E4000CAE7000010B586B00446142101A8FBF79C
:104E500061FA9E492068884277D100BF0020009007
:104E60009B48006840F010009949086008460068B7
:104E700000F01000009000BF00BF00BF00200090B5
:104E800093481438006840F00200914914390860D2
:104E90000846006800F00200009000BF00BF00BF9D
:104EA000002000900846006840F0010008600846B5
:104EB000006800F00100009000BF00BF802001905A
:104EC0000220029000200390032004900720059008
:104ED00001A98048FEF754F84FF4007001900220B9
:104EE000029000200390032004900720059001A960
:104EF0007948FEF745F87948794908604FF0006035
:104F00004860002176488160C1604FF48061016192
:104F10000021416181614FF48071C1610021016212
:104F20004162FDF7E5FE08B1FCF7F1FD00BF6C48FA
:104F30006063846300BF002205212520FEF75EFD2B
:104F40002520FEF74BFDBFE0FFE766492068884259
:104F50005CD100BF002000905D48001F006840F455
:104F600080205B49091F08600846006800F4802023
:104F7000009000BF00BF00BF0020009054481438CC
:104F8000006840F00400524914390860084600687F
:104F900000F00400009000BF00BF4FF4406001909B
:104FA0000220029000200390032004900720059027
:104FB00001A94D48FDF7E4FF4C484D4908604FF00A
:104FC0000060486000214A488160C1604FF4806100
:104FD00001610021416181614FF48071C161090269
:104FE000016200214162FDF783FE08B1FCF78FFDED
:104FF00000BF3F486063846300BF00220521272073
:10500000FEF7FCFC2720FEF7E9FC5DE0394920684B
:10501000884259D100BF002000902D48006840F020
:1050200020002B4908600846006800F0200000902E
:1050300000BF00BF00BF0020009025481438006862
:1050400040F040002249143908600846006800F02A
:105050004000009000BF00BF4FF484400190022048
:10506000029000200390032004900820059001A9DD
:105070002148FDF785FF1948603820490860800500
:10508000486000211D488160C1604FF4806101616A
:105090000021416181614FF48071C16109020162A7
:1050A00000214162FDF724FE08B1FCF730FD00BF8E
:1050B00012486063846300BF002205214720FEF789
:1050C0009DFC4720FEF78AFC06B010BD0010014091
:1050D000443802400004024000000240886402405C
:1050E000D40600200048004000080240286002402A
:1050F00034070020001401400018024094070020EB
:105100007047704700BFFEE7014608684069C0F37A
:105110008020B0B16FF480600A685061002008639D
:10512000202081F83D00002081F83E00086C40F00E
:105130000400086400BF002081F83C0000BF01208B
:1051400070470020FCE700002DE9F84304460F46B5
:1051500015469946DDE908862068006840F48060BD
:10516000216808602068006840F480702168086049
:10517000434600224FF001112046009600F02CF922
:1051800050B12068006800F4807010B14FF40070D6
:1051900020640320BDE8F88307F0FE002168086161
:1051A000334642463D49204600F059F908B10120F6
:1051B000F0E700BF00200090206840690090206860
:1051C0008069009000BF00BF32464146204600F093
:1051D000E8F950B1206C042805D12068006840F43B
:1051E0000070216808600120D4E7B9F1010F03D1F4
:1051F000E8B22168086117E0C5F30720216808615B
:1052000032464146204600F0CCF950B1206C0428CB
:1052100005D12068006840F4007021680860012012
:10522000B8E7E8B22168086132464146204600F0FE
:10523000B8F950B1206C042805D12068006840F40A
:105240000070216808600120A4E72068006840F42D
:10525000807021680860434600224FF0011120460B
:10526000009600F0B9F848B12068006800F480703A
:1052700010B14FF40070206403208BE7F8B240F0C7
:10528000010021680861334642460449204600F087
:10529000E6F808B101207DE700207BE7020001006D
:1052A0002DE9F8430446884615469946DDE9086726
:1052B0002068006840F4807021680860334600224E
:1052C0004FF001112046009700F086F850B1206899
:1052D000006800F4807010B14FF400702064032067
:1052E000BDE8F88308F0FE00216808613B463246BD
:1052F0002149204600F0B3F808B10120F0E700BFD3
:10530000002000902068406900902068806900902B
:1053100000BF00BF3A463146204600F042F950B186
:10532000206C042805D12068006840F400702168D2
:1053300008600120D4E7B9F1010F03D1E8B2216878
:10534000086117E0C5F30720216808613A46314635
:10535000204600F026F950B1206C042805D12068C1
:10536000006840F40070216808600120B8E7E8B2E6
:10537000216808610020B3E70200010070B504460F
:105380000D46164620E02046FFF7BEFE08B101207C
:1053900070BD681CC0B1FDF70BFF801BA84200D890
:1053A00095B900202063202084F83D00002084F877
:1053B0003E00206C40F02000206400BF002084F8F4
:1053C0003C0000BF0120E3E720684069C0F3800093
:1053D0000028D8D00020DBE72DE9F04104460D4637
:1053E00017461E46DDF818801CE0701CD0B1FDF792
:1053F000DFFEA0EB0800B04200D89EB90020206379
:10540000202084F83D00002084F83E00206C40F00D
:105410002000206400BF002084F83C0000BF012071
:10542000BDE8F081C5F3074001280AD12068406932
:10543000A9B20840A9B2884201D101200BE00020A6
:1054400009E020688069A9B20840A9B2884201D168
:10545000012000E00020B842C7D00020E0E72DE99D
:10546000F04104460D4616461F463DE0206840695F
:10547000C0F38020E8B12068006840F40070216823
:1054800008606FF48060216848610020206320205C
:1054900084F83D00002084F83E00206C40F00400B9
:1054A000206400BF002084F83C0000BF0120BDE85C
:1054B000F081701CC0B1FDF77BFEC01BB04200D86C
:1054C00096B900202063202084F83D00002084F855
:1054D0003E00206C40F02000206400BF002084F8D3
:1054E0003C0000BF0120E2E7C5F3074001280AD1D4
:1054F00020684069A9B20840A9B2884201D10120C0
:105500000BE0002009E020688069A9B20840A9B238
:10551000884201D1012000E000200028A6D0002010
:10552000C5E770B504460D46164632E0206840696E
:10553000C0F30010A0B16FF0100021684861002096
:105540002063202084F83D00002084F83E00206C79
:10555000206400BF002084F83C0000BF012070BD23
:10556000FDF726FE801BA84200D895B900202063D5
:10557000202084F83D00002084F83E00206C40F09C
:105580002000206400BF002084F83C0000BF012000
:10559000E5E720684069C0F380100028C6D00020ED
:1055A000DDE770B504460D46164620E02046FFF7BD
:1055B000ABFD08B1012070BD681CC0B1FDF7F8FD5E
:1055C000801BA84200D895B900202063202084F8D1
:1055D0003D00002084F83E00206C40F02000206454
:1055E00000BF002084F83C0000BF0120E3E72068F2
:1055F0004069C0F3C0100028D8D00020DBE70000CD
:1056000008B5072006F047FB02E0642006F043FBE4
:10561000FBF75CFA0028F8D102E0642006F03BFBBF
:1056200006F07CFA0028F8D1754AA2F10C01101D91
:10563000FBF766FA9FED732ADFED731A9FED731A7D
:10564000DFED730A9FED730A0021734801F004FD3A
:10565000724A6B490C397248FBF73EF910217148C8
:10566000C161FEF7C3FD08B1FCF751FA08226E498B
:105670006E4804F09FFB01206D49087007F0D4FAD2
:105680000090BBE000BF4FF0FF31012006F062FE4A
:105690000128F8D16748007800F0040058B1654847
:1056A000007820F00400634908705549091D5E48E0
:1056B000401CFBF7D7F96048007800F0040060B1A7
:1056C0005D48007820F004005B4908704C4A1032B5
:1056D000A2F11C015948FBF76FF95948007800F016
:1056E000040088B15648007820F00400544908703E
:1056F00043495448FBF7F2FA41481038D0ED040A08
:10570000B0EE600A06F040F9444B3D4A0C3A02F113
:1057100010019FED4D0A4248FBF7F2F84B4B1A1F60
:10572000111F3F4805F0FAFF4848083890ED000A7D
:10573000474880ED010A90F8391090F83900401C74
:10574000434A82F83900142944DD1720114681F8B4
:105750003900084690ED010AD0ED020A30EE600AE9
:1057600080ED000A90ED000ADFED3A0AB4EEE00A9F
:10577000F1EE10FA08D290ED050AF7EE000A30EECD
:10578000200A80ED050A11E0314890ED000ADFEDB6
:10579000320AB4EEE00AF1EE10FA07DD90ED050AE8
:1057A000F7EE000A30EE600A80ED050A284890ED19
:1057B000010AD0ED050A9FED291A00EE810AD0ED0D
:1057C000040A30EE600ADFED260A20EE200A80EDA2
:1057D000060A0AE01E4890ED010A80ED040A90F8DE
:1057E0003900401C1A4981F83900194890ED010A26
:1057F00080ED020A0121684606F059FA42E70000EE
:10580000804C002000000000CDCC4C3E0000C8447D
:105810000080894500A08C4564490020984C0020F8
:10582000E04C00207C0400205001002058010020A2
:10583000750100207101002072010020664C0020DB
:10584000730100206B0100206F12833AF84C002096
:10585000A44C0020000034C3000034430000B443D3
:105860000000B6C19FED0E1A80ED001A9FED0C1AD4
:1058700080ED051A80ED090AC0ED0A0AB7EE001A9C
:1058800080ED071A9FED061A80ED081AB7EE001A90
:1058900080ED0B1A90ED001A80ED011A70470000A0
:1058A00000000000F0EE400A90ED070A90ED001AAB
:1058B00020EE010A80ED010A90ED090A90ED071A29
:1058C000D0ED051A01EE210A80ED030A90ED030ADE
:1058D00090ED0A1A30EE010A90ED031AC1EE001A9B
:1058E000C0ED061A90ED010A90ED061AD0ED011AEE
:1058F00070EEE11A01EE210A80ED020A90ED060A2F
:10590000B7EE001A31EE400A90ED031A20EE010ABC
:1059100080ED040A90ED040A80ED050A90ED020A7C
:1059200080ED000A90ED020A7047F0EE401AB7EEE3
:10593000000A30EE410A20EE210A00EE810A70478B
:1059400010B50E480E4908600620486000210C483A
:105950008160C1604FF4803101614FF440114161B9
:105960000021017641768176C17601774177FCF797
:10597000F4FD08B1FCF7CBF810BD00000064004056
:105980008401002010B50E480E49086006204860CA
:1059900000210C488160C1604FF4803101614FF4F7
:1059A000401141610021017641768176C17601770F
:1059B0004177FCF7D2FD08B1FCF7A9F810BD000053
:1059C00000680040AC01002008B500BF0020009036
:1059D0002248006840F4001020490860084600682A
:1059E00000F40010009000BF00BF00BF0020009036
:1059F0000846006840F4800008600846006800F42B
:105A00008000009000BF00BF002205210C20FDF7A0
:105A1000F5FF0C20FDF7E2FF002205213920FDF7FC
:105A2000EDFF3920FDF7DAFF002205213A20FDF7CE
:105A3000E5FF3A20FDF7D2FF002205213B20FDF7CC
:105A4000DDFF3B20FDF7CAFF002205214420FDF7C2
:105A5000D5FF4420FDF7C2FF08BD000030380240EA
:105A600000B5A3B01C221E491CA8FAF73AFC00217D
:105A70001CA806F02FF91B4908601C2218491C318C
:105A800015A8FAF72EFC002115A806F023F91649EF
:105A900008601C22124938310EA8FAF722FC0021B6
:105AA0000EA806F017F9114908601C220C49543160
:105AB00007A8FAF716FC002107A806F00BF90C4915
:105AC00008601C22064970316846FAF70AFC00217A
:105AD000684606F0FFF80749086023B000BD0000E3
